{
  "contractName": "ZombieFeeding",
  "abi": [
    {
      "anonymous": false,
      "inputs": [
        {
          "indexed": false,
          "internalType": "uint256",
          "name": "zombieId",
          "type": "uint256"
        },
        {
          "indexed": false,
          "internalType": "string",
          "name": "name",
          "type": "string"
        },
        {
          "indexed": false,
          "internalType": "uint256",
          "name": "dna",
          "type": "uint256"
        }
      ],
      "name": "NewZombie",
      "type": "event"
    },
    {
      "anonymous": false,
      "inputs": [
        {
          "indexed": true,
          "internalType": "address",
          "name": "previousOwner",
          "type": "address"
        },
        {
          "indexed": true,
          "internalType": "address",
          "name": "newOwner",
          "type": "address"
        }
      ],
      "name": "OwnershipTransferred",
      "type": "event"
    },
    {
      "constant": false,
      "inputs": [
        {
          "internalType": "string",
          "name": "_name",
          "type": "string"
        }
      ],
      "name": "createRandomZombie",
      "outputs": [],
      "payable": false,
      "stateMutability": "nonpayable",
      "type": "function"
    },
    {
      "constant": true,
      "inputs": [],
      "name": "isOwner",
      "outputs": [
        {
          "internalType": "bool",
          "name": "",
          "type": "bool"
        }
      ],
      "payable": false,
      "stateMutability": "view",
      "type": "function"
    },
    {
      "constant": true,
      "inputs": [],
      "name": "owner",
      "outputs": [
        {
          "internalType": "address",
          "name": "",
          "type": "address"
        }
      ],
      "payable": false,
      "stateMutability": "view",
      "type": "function"
    },
    {
      "constant": false,
      "inputs": [],
      "name": "renounceOwnership",
      "outputs": [],
      "payable": false,
      "stateMutability": "nonpayable",
      "type": "function"
    },
    {
      "constant": false,
      "inputs": [
        {
          "internalType": "address",
          "name": "newOwner",
          "type": "address"
        }
      ],
      "name": "transferOwnership",
      "outputs": [],
      "payable": false,
      "stateMutability": "nonpayable",
      "type": "function"
    },
    {
      "constant": true,
      "inputs": [
        {
          "internalType": "uint256",
          "name": "",
          "type": "uint256"
        }
      ],
      "name": "zombieToOwner",
      "outputs": [
        {
          "internalType": "address",
          "name": "",
          "type": "address"
        }
      ],
      "payable": false,
      "stateMutability": "view",
      "type": "function"
    },
    {
      "constant": true,
      "inputs": [
        {
          "internalType": "uint256",
          "name": "",
          "type": "uint256"
        }
      ],
      "name": "zombies",
      "outputs": [
        {
          "internalType": "string",
          "name": "name",
          "type": "string"
        },
        {
          "internalType": "uint256",
          "name": "dna",
          "type": "uint256"
        },
        {
          "internalType": "uint32",
          "name": "level",
          "type": "uint32"
        },
        {
          "internalType": "uint32",
          "name": "readyTime",
          "type": "uint32"
        },
        {
          "internalType": "uint16",
          "name": "winCount",
          "type": "uint16"
        },
        {
          "internalType": "uint16",
          "name": "lossCount",
          "type": "uint16"
        }
      ],
      "payable": false,
      "stateMutability": "view",
      "type": "function"
    },
    {
      "constant": false,
      "inputs": [
        {
          "internalType": "address",
          "name": "_address",
          "type": "address"
        }
      ],
      "name": "setKittyContractAddress",
      "outputs": [],
      "payable": false,
      "stateMutability": "nonpayable",
      "type": "function"
    },
    {
      "constant": false,
      "inputs": [
        {
          "internalType": "uint256",
          "name": "_zombieId",
          "type": "uint256"
        },
        {
          "internalType": "uint256",
          "name": "_kittyId",
          "type": "uint256"
        }
      ],
      "name": "feedOnKitty",
      "outputs": [],
      "payable": false,
      "stateMutability": "nonpayable",
      "type": "function"
    }
  ],
  "bytecode": "0x60806040526010600155600154600a0a60025562015180600355336000806101000a81548173ffffffffffffffffffffffffffffffffffffffff021916908373ffffffffffffffffffffffffffffffffffffffff1602179055506000809054906101000a900473ffffffffffffffffffffffffffffffffffffffff1673ffffffffffffffffffffffffffffffffffffffff16600073ffffffffffffffffffffffffffffffffffffffff167f8be0079c531659141344cd1fd0a4f28419497f9722a3daafe3b4186f6b6457e060405160405180910390a361106e806100e46000396000f3fe608060405234801561001057600080fd5b50600436106100935760003560e01c8063715018a611610066578063715018a6146102745780637bff0a011461027e5780638da5cb5b146103395780638f32d59b14610383578063f2fde38b146103a557610093565b806317a7f4cc146100985780632052465e146100d0578063528b7b8f146101c25780635f4623f114610230575b600080fd5b6100ce600480360360408110156100ae57600080fd5b8101908080359060200190929190803590602001909291905050506103e9565b005b6100fc600480360360208110156100e657600080fd5b8101908080359060200190929190505050610574565b60405180806020018781526020018663ffffffff1663ffffffff1681526020018563ffffffff1663ffffffff1681526020018461ffff1661ffff1681526020018361ffff1661ffff168152602001828103825288818151815260200191508051906020019080838360005b83811015610182578082015181840152602081019050610167565b50505050905090810190601f1680156101af5780820380516001836020036101000a031916815260200191505b5097505050505050505060405180910390f35b6101ee600480360360208110156101d857600080fd5b8101908080359060200190929190505050610691565b604051808273ffffffffffffffffffffffffffffffffffffffff1673ffffffffffffffffffffffffffffffffffffffff16815260200191505060405180910390f35b6102726004803603602081101561024657600080fd5b81019080803573ffffffffffffffffffffffffffffffffffffffff1690602001909291905050506106c4565b005b61027c610719565b005b6103376004803603602081101561029457600080fd5b81019080803590602001906401000000008111156102b157600080fd5b8201836020820111156102c357600080fd5b803590602001918460018302840111640100000000831117156102e557600080fd5b91908080601f016020809104026020016040519081016040528093929190818152602001838380828437600081840152601f19601f8201169050808301925050505050505091929192905050506107e9565b005b610341610850565b604051808273ffffffffffffffffffffffffffffffffffffffff1673ffffffffffffffffffffffffffffffffffffffff16815260200191505060405180910390f35b61038b610879565b604051808215151515815260200191505060405180910390f35b6103e7600480360360208110156103bb57600080fd5b81019080803573ffffffffffffffffffffffffffffffffffffffff1690602001909291905050506108d0565b005b6000600760009054906101000a900473ffffffffffffffffffffffffffffffffffffffff1673ffffffffffffffffffffffffffffffffffffffff1663e98b7f4d836040518263ffffffff1660e01b8152600401808281526020019150506101406040518083038186803b15801561045f57600080fd5b505afa158015610473573d6000803e3d6000fd5b505050506040513d61014081101561048a57600080fd5b81019080805190602001909291908051906020019092919080519060200190929190805190602001909291908051906020019092919080519060200190929190805190602001909291908051906020019092919080519060200190929190805190602001909291905050509091929394959697985090919293949596975090919293949596509091929394955090919293945090919293509091925090915090508091505061056f83826040518060400160405280600581526020017f6b697474790000000000000000000000000000000000000000000000000000008152506108ed565b505050565b6004818154811061058157fe5b9060005260206000209060030201600091509050806000018054600181600116156101000203166002900480601f01602080910402602001604051908101604052809291908181526020018280546001816001161561010002031660029004801561062d5780601f106106025761010080835404028352916020019161062d565b820191906000526020600020905b81548152906001019060200180831161061057829003601f168201915b5050505050908060010154908060020160009054906101000a900463ffffffff16908060020160049054906101000a900463ffffffff16908060020160089054906101000a900461ffff169080600201600a9054906101000a900461ffff16905086565b60056020528060005260406000206000915054906101000a900473ffffffffffffffffffffffffffffffffffffffff1681565b6106cc610879565b6106d557600080fd5b80600760006101000a81548173ffffffffffffffffffffffffffffffffffffffff021916908373ffffffffffffffffffffffffffffffffffffffff16021790555050565b610721610879565b61072a57600080fd5b600073ffffffffffffffffffffffffffffffffffffffff166000809054906101000a900473ffffffffffffffffffffffffffffffffffffffff1673ffffffffffffffffffffffffffffffffffffffff167f8be0079c531659141344cd1fd0a4f28419497f9722a3daafe3b4186f6b6457e060405160405180910390a360008060006101000a81548173ffffffffffffffffffffffffffffffffffffffff021916908373ffffffffffffffffffffffffffffffffffffffff160217905550565b6000600660003373ffffffffffffffffffffffffffffffffffffffff1673ffffffffffffffffffffffffffffffffffffffff168152602001908152602001600020541461083557600080fd5b600061084082610acf565b905061084c8282610b5d565b5050565b60008060009054906101000a900473ffffffffffffffffffffffffffffffffffffffff16905090565b60008060009054906101000a900473ffffffffffffffffffffffffffffffffffffffff1673ffffffffffffffffffffffffffffffffffffffff163373ffffffffffffffffffffffffffffffffffffffff1614905090565b6108d8610879565b6108e157600080fd5b6108ea81610e2f565b50565b826005600082815260200190815260200160002060009054906101000a900473ffffffffffffffffffffffffffffffffffffffff1673ffffffffffffffffffffffffffffffffffffffff163373ffffffffffffffffffffffffffffffffffffffff161461095957600080fd5b60006004858154811061096857fe5b9060005260206000209060030201905061098181610f27565b61098a57600080fd5b600254848161099557fe5b0693506000600285836001015401816109aa57fe5b04905060405160200180807f6b69747479000000000000000000000000000000000000000000000000000000815250600501905060405160208183030381529060405280519060200120846040516020018082805190602001908083835b60208310610a2b5780518252602082019150602081019050602083039250610a08565b6001836020036101000a038019825116818451168082178552505050505050905001915050604051602081830303815290604052805190602001201415610a7f57606360648281610a7857fe5b0682030190505b610abe6040518060400160405280600681526020017f4e6f4e616d65000000000000000000000000000000000000000000000000000081525082610b5d565b610ac782610f4e565b505050505050565b600080826040516020018082805190602001908083835b60208310610b095780518252602082019150602081019050602083039250610ae6565b6001836020036101000a0380198251168184511680821785525050505050509050019150506040516020818303038152906040528051906020012060001c90506002548181610b5457fe5b06915050919050565b6000600160046040518060c00160405280868152602001858152602001600163ffffffff168152602001600354420163ffffffff168152602001600061ffff168152602001600061ffff16815250908060018154018082558091505090600182039060005260206000209060030201600090919290919091506000820151816000019080519060200190610bf2929190610f94565b506020820151816001015560408201518160020160006101000a81548163ffffffff021916908363ffffffff16021790555060608201518160020160046101000a81548163ffffffff021916908363ffffffff16021790555060808201518160020160086101000a81548161ffff021916908361ffff16021790555060a082015181600201600a6101000a81548161ffff021916908361ffff1602179055505050039050336005600083815260200190815260200160002060006101000a81548173ffffffffffffffffffffffffffffffffffffffff021916908373ffffffffffffffffffffffffffffffffffffffff160217905550610d3b6001600660003373ffffffffffffffffffffffffffffffffffffffff1673ffffffffffffffffffffffffffffffffffffffff16815260200190815260200160002054610f7890919063ffffffff16565b600660003373ffffffffffffffffffffffffffffffffffffffff1673ffffffffffffffffffffffffffffffffffffffff168152602001908152602001600020819055507f88f026aacbbecc90c18411df4b1185fd8d9be2470f1962f192bf84a27d0704b78184846040518084815260200180602001838152602001828103825284818151815260200191508051906020019080838360005b83811015610dee578082015181840152602081019050610dd3565b50505050905090810190601f168015610e1b5780820380516001836020036101000a031916815260200191505b5094505050505060405180910390a1505050565b600073ffffffffffffffffffffffffffffffffffffffff168173ffffffffffffffffffffffffffffffffffffffff161415610e6957600080fd5b8073ffffffffffffffffffffffffffffffffffffffff166000809054906101000a900473ffffffffffffffffffffffffffffffffffffffff1673ffffffffffffffffffffffffffffffffffffffff167f8be0079c531659141344cd1fd0a4f28419497f9722a3daafe3b4186f6b6457e060405160405180910390a3806000806101000a81548173ffffffffffffffffffffffffffffffffffffffff021916908373ffffffffffffffffffffffffffffffffffffffff16021790555050565b6000428260020160049054906101000a900463ffffffff1663ffffffff1611159050919050565b60035442018160020160046101000a81548163ffffffff021916908363ffffffff16021790555050565b600080828401905083811015610f8a57fe5b8091505092915050565b828054600181600116156101000203166002900490600052602060002090601f016020900481019282601f10610fd557805160ff1916838001178555611003565b82800160010185558215611003579182015b82811115611002578251825591602001919060010190610fe7565b5b5090506110109190611014565b5090565b61103691905b8082111561103257600081600090555060010161101a565b5090565b9056fea265627a7a7231582045bc94d979e324797cc445660642a33280c0e06a799969d51e9a741b0e98649864736f6c63430005100032",
  "source": "pragma solidity >=0.5.0 <0.6.0;\r\n\r\nimport \"./ZombieFactory.sol\";\r\n\r\ncontract KittyInterface {\r\n  function getKitty(uint256 _id) external view returns (\r\n    bool isGestating,\r\n    bool isReady,\r\n    uint256 cooldownIndex,\r\n    uint256 nextActionAt,\r\n    uint256 siringWithId,\r\n    uint256 birthTime,\r\n    uint256 matronId,\r\n    uint256 sireId,\r\n    uint256 generation,\r\n    uint256 genes\r\n  );\r\n}\r\n\r\ncontract ZombieFeeding is ZombieFactory {\r\n\r\nKittyInterface kittyContract;\r\n\r\n  modifier onlyOwnerOf(uint _zombieId) {\r\n    require(msg.sender == zombieToOwner[_zombieId]);\r\n    _;\r\n  }\r\n\r\n  function setKittyContractAddress(address _address) external onlyOwner {\r\n    kittyContract = KittyInterface(_address);\r\n  }\r\n\r\n  function _triggerCooldown(Zombie storage _zombie) internal {\r\n    _zombie.readyTime = uint32(now + cooldownTime);\r\n  }\r\n\r\n  function _isReady(Zombie storage _zombie) internal view returns (bool) {\r\n      return (_zombie.readyTime <= now);\r\n  }\r\n\r\n  function feedAndMultiply(uint _zombieId, uint _targetDna, string memory _species) internal onlyOwnerOf(_zombieId) {\r\n    Zombie storage myZombie = zombies[_zombieId];\r\n\r\n    require(_isReady(myZombie));\r\n    _targetDna = _targetDna % dnaModulus;\r\n     uint newDna = (myZombie.dna + _targetDna) / 2;\r\n\r\n    if (keccak256(abi.encodePacked(_species)) == keccak256(abi.encodePacked(\"kitty\"))) {\r\n      newDna = newDna - newDna % 100 + 99;\r\n    }\r\n\r\n    _createZombie(\"NoName\", newDna);\r\n\r\n    _triggerCooldown(myZombie);\r\n  }\r\n\r\n  function feedOnKitty(uint _zombieId, uint _kittyId) public {\r\n    uint kittyDna;\r\n    (,,,,,,,,,kittyDna) = kittyContract.getKitty(_kittyId);\r\n    feedAndMultiply(_zombieId, kittyDna, \"kitty\");\r\n  }\r\n\r\n}",
  "sourcePath": "c:/_solida/solidazombies/src/contracts/ZombieFeeding.sol",
  "compiler": {
    "name": "solc",
    "version": "0.5.16+commit.9c3226ce.Emscripten.clang"
  },
  "schemaVersion": "3.2.3",
  "updatedAt": "2021-03-25T01:40:48.804Z",
  "devdoc": {
    "methods": {
      "isOwner()": {
        "return": "true if `msg.sender` is the owner of the contract."
      },
      "owner()": {
        "return": "the address of the owner."
      },
      "renounceOwnership()": {
        "details": "Allows the current owner to relinquish control of the contract."
      },
      "transferOwnership(address)": {
        "details": "Allows the current owner to transfer control of the contract to a newOwner.",
        "params": {
          "newOwner": "The address to transfer ownership to."
        }
      }
    }
  },
  "userdoc": {
    "methods": {
      "renounceOwnership()": {
        "notice": "Renouncing to ownership will leave the contract without an owner. It will not be possible to call the functions with the `onlyOwner` modifier anymore."
      }
    }
  }
}