{
  "contractName": "ZombieAttack",
  "abi": [
    {
      "anonymous": false,
      "inputs": [
        {
          "indexed": false,
          "internalType": "uint256",
          "name": "zombieId",
          "type": "uint256"
        },
        {
          "indexed": false,
          "internalType": "string",
          "name": "name",
          "type": "string"
        },
        {
          "indexed": false,
          "internalType": "uint256",
          "name": "dna",
          "type": "uint256"
        }
      ],
      "name": "NewZombie",
      "type": "event"
    },
    {
      "anonymous": false,
      "inputs": [
        {
          "indexed": true,
          "internalType": "address",
          "name": "previousOwner",
          "type": "address"
        },
        {
          "indexed": true,
          "internalType": "address",
          "name": "newOwner",
          "type": "address"
        }
      ],
      "name": "OwnershipTransferred",
      "type": "event"
    },
    {
      "constant": false,
      "inputs": [
        {
          "internalType": "uint256",
          "name": "_zombieId",
          "type": "uint256"
        },
        {
          "internalType": "uint256",
          "name": "_newDna",
          "type": "uint256"
        }
      ],
      "name": "changeDna",
      "outputs": [],
      "payable": false,
      "stateMutability": "nonpayable",
      "type": "function"
    },
    {
      "constant": false,
      "inputs": [
        {
          "internalType": "uint256",
          "name": "_zombieId",
          "type": "uint256"
        },
        {
          "internalType": "string",
          "name": "_newName",
          "type": "string"
        }
      ],
      "name": "changeName",
      "outputs": [],
      "payable": false,
      "stateMutability": "nonpayable",
      "type": "function"
    },
    {
      "constant": false,
      "inputs": [
        {
          "internalType": "string",
          "name": "_name",
          "type": "string"
        }
      ],
      "name": "createRandomZombie",
      "outputs": [],
      "payable": false,
      "stateMutability": "nonpayable",
      "type": "function"
    },
    {
      "constant": false,
      "inputs": [
        {
          "internalType": "uint256",
          "name": "_zombieId",
          "type": "uint256"
        },
        {
          "internalType": "uint256",
          "name": "_kittyId",
          "type": "uint256"
        }
      ],
      "name": "feedOnKitty",
      "outputs": [],
      "payable": false,
      "stateMutability": "nonpayable",
      "type": "function"
    },
    {
      "constant": true,
      "inputs": [
        {
          "internalType": "address",
          "name": "_owner",
          "type": "address"
        }
      ],
      "name": "getZombiesByOwner",
      "outputs": [
        {
          "internalType": "uint256[]",
          "name": "",
          "type": "uint256[]"
        }
      ],
      "payable": false,
      "stateMutability": "view",
      "type": "function"
    },
    {
      "constant": true,
      "inputs": [],
      "name": "isOwner",
      "outputs": [
        {
          "internalType": "bool",
          "name": "",
          "type": "bool"
        }
      ],
      "payable": false,
      "stateMutability": "view",
      "type": "function"
    },
    {
      "constant": false,
      "inputs": [
        {
          "internalType": "uint256",
          "name": "_zombieId",
          "type": "uint256"
        }
      ],
      "name": "levelUp",
      "outputs": [],
      "payable": true,
      "stateMutability": "payable",
      "type": "function"
    },
    {
      "constant": true,
      "inputs": [],
      "name": "owner",
      "outputs": [
        {
          "internalType": "address",
          "name": "",
          "type": "address"
        }
      ],
      "payable": false,
      "stateMutability": "view",
      "type": "function"
    },
    {
      "constant": false,
      "inputs": [],
      "name": "renounceOwnership",
      "outputs": [],
      "payable": false,
      "stateMutability": "nonpayable",
      "type": "function"
    },
    {
      "constant": false,
      "inputs": [
        {
          "internalType": "address",
          "name": "_address",
          "type": "address"
        }
      ],
      "name": "setKittyContractAddress",
      "outputs": [],
      "payable": false,
      "stateMutability": "nonpayable",
      "type": "function"
    },
    {
      "constant": false,
      "inputs": [
        {
          "internalType": "uint256",
          "name": "_fee",
          "type": "uint256"
        }
      ],
      "name": "setLevelUpFee",
      "outputs": [],
      "payable": false,
      "stateMutability": "nonpayable",
      "type": "function"
    },
    {
      "constant": false,
      "inputs": [
        {
          "internalType": "address",
          "name": "newOwner",
          "type": "address"
        }
      ],
      "name": "transferOwnership",
      "outputs": [],
      "payable": false,
      "stateMutability": "nonpayable",
      "type": "function"
    },
    {
      "constant": false,
      "inputs": [],
      "name": "withdraw",
      "outputs": [],
      "payable": false,
      "stateMutability": "nonpayable",
      "type": "function"
    },
    {
      "constant": true,
      "inputs": [
        {
          "internalType": "uint256",
          "name": "",
          "type": "uint256"
        }
      ],
      "name": "zombieToOwner",
      "outputs": [
        {
          "internalType": "address",
          "name": "",
          "type": "address"
        }
      ],
      "payable": false,
      "stateMutability": "view",
      "type": "function"
    },
    {
      "constant": true,
      "inputs": [
        {
          "internalType": "uint256",
          "name": "",
          "type": "uint256"
        }
      ],
      "name": "zombies",
      "outputs": [
        {
          "internalType": "string",
          "name": "name",
          "type": "string"
        },
        {
          "internalType": "uint256",
          "name": "dna",
          "type": "uint256"
        },
        {
          "internalType": "uint32",
          "name": "level",
          "type": "uint32"
        },
        {
          "internalType": "uint32",
          "name": "readyTime",
          "type": "uint32"
        },
        {
          "internalType": "uint16",
          "name": "winCount",
          "type": "uint16"
        },
        {
          "internalType": "uint16",
          "name": "lossCount",
          "type": "uint16"
        }
      ],
      "payable": false,
      "stateMutability": "view",
      "type": "function"
    },
    {
      "constant": false,
      "inputs": [
        {
          "internalType": "uint256",
          "name": "_zombieId",
          "type": "uint256"
        },
        {
          "internalType": "uint256",
          "name": "_targetId",
          "type": "uint256"
        }
      ],
      "name": "attack",
      "outputs": [],
      "payable": false,
      "stateMutability": "nonpayable",
      "type": "function"
    }
  ],
  "bytecode": "0x60806040526010600155600154600a0a6002556201518060035566038d7ea4c6800060085560006009556046600a55336000806101000a81548173ffffffffffffffffffffffffffffffffffffffff021916908373ffffffffffffffffffffffffffffffffffffffff1602179055506000809054906101000a900473ffffffffffffffffffffffffffffffffffffffff1673ffffffffffffffffffffffffffffffffffffffff16600073ffffffffffffffffffffffffffffffffffffffff167f8be0079c531659141344cd1fd0a4f28419497f9722a3daafe3b4186f6b6457e060405160405180910390a3611b4b806100f96000396000f3fe6080604052600436106100f35760003560e01c8063715018a61161008a578063c39cbef111610059578063c39cbef11461059d578063ccf670f81461062d578063e1fa763814610668578063f2fde38b146106ad576100f3565b8063715018a6146104385780637bff0a011461044f5780638da5cb5b146105175780638f32d59b1461056e576100f3565b80634412e104116100c65780634412e10414610281578063528b7b8f146103275780635f4623f1146103a25780635faf2880146103f3576100f3565b80630ce90ec2146100f857806317a7f4cc146101265780632052465e1461016b5780633ccfd60b1461026a575b600080fd5b6101246004803603602081101561010e57600080fd5b81019080803590602001909291905050506106fe565b005b34801561013257600080fd5b506101696004803603604081101561014957600080fd5b810190808035906020019092919080359060200190929190505050610766565b005b34801561017757600080fd5b506101a46004803603602081101561018e57600080fd5b81019080803590602001909291905050506108f1565b60405180806020018781526020018663ffffffff1663ffffffff1681526020018563ffffffff1663ffffffff1681526020018461ffff1661ffff1681526020018361ffff1661ffff168152602001828103825288818151815260200191508051906020019080838360005b8381101561022a57808201518184015260208101905061020f565b50505050905090810190601f1680156102575780820380516001836020036101000a031916815260200191505b5097505050505050505060405180910390f35b34801561027657600080fd5b5061027f610a0e565b005b34801561028d57600080fd5b506102d0600480360360208110156102a457600080fd5b81019080803573ffffffffffffffffffffffffffffffffffffffff169060200190929190505050610a75565b6040518080602001828103825283818151815260200191508051906020019060200280838360005b838110156103135780820151818401526020810190506102f8565b505050509050019250505060405180910390f35b34801561033357600080fd5b506103606004803603602081101561034a57600080fd5b8101908080359060200190929190505050610ba2565b604051808273ffffffffffffffffffffffffffffffffffffffff1673ffffffffffffffffffffffffffffffffffffffff16815260200191505060405180910390f35b3480156103ae57600080fd5b506103f1600480360360208110156103c557600080fd5b81019080803573ffffffffffffffffffffffffffffffffffffffff169060200190929190505050610bd5565b005b3480156103ff57600080fd5b506104366004803603604081101561041657600080fd5b810190808035906020019092919080359060200190929190505050610c2a565b005b34801561044457600080fd5b5061044d610d04565b005b34801561045b57600080fd5b506105156004803603602081101561047257600080fd5b810190808035906020019064010000000081111561048f57600080fd5b8201836020820111156104a157600080fd5b803590602001918460018302840111640100000000831117156104c357600080fd5b91908080601f016020809104026020016040519081016040528093929190818152602001838380828437600081840152601f19601f820116905080830192505050505050509192919290505050610dd4565b005b34801561052357600080fd5b5061052c610e3b565b604051808273ffffffffffffffffffffffffffffffffffffffff1673ffffffffffffffffffffffffffffffffffffffff16815260200191505060405180910390f35b34801561057a57600080fd5b50610583610e64565b604051808215151515815260200191505060405180910390f35b3480156105a957600080fd5b5061062b600480360360408110156105c057600080fd5b8101908080359060200190929190803590602001906401000000008111156105e757600080fd5b8201836020820111156105f957600080fd5b8035906020019184600183028401116401000000008311171561061b57600080fd5b9091929391929390505050610ebb565b005b34801561063957600080fd5b506106666004803603602081101561065057600080fd5b8101908080359060200190929190505050610fa1565b005b34801561067457600080fd5b506106ab6004803603604081101561068b57600080fd5b810190808035906020019092919080359060200190929190505050610fbc565b005b3480156106b957600080fd5b506106fc600480360360208110156106d057600080fd5b81019080803573ffffffffffffffffffffffffffffffffffffffff169060200190929190505050611248565b005b600854341461070c57600080fd5b6004818154811061071957fe5b9060005260206000209060030201600201600081819054906101000a900463ffffffff168092919060010191906101000a81548163ffffffff021916908363ffffffff1602179055505050565b6000600760009054906101000a900473ffffffffffffffffffffffffffffffffffffffff1673ffffffffffffffffffffffffffffffffffffffff1663e98b7f4d836040518263ffffffff1660e01b8152600401808281526020019150506101406040518083038186803b1580156107dc57600080fd5b505afa1580156107f0573d6000803e3d6000fd5b505050506040513d61014081101561080757600080fd5b8101908080519060200190929190805190602001909291908051906020019092919080519060200190929190805190602001909291908051906020019092919080519060200190929190805190602001909291908051906020019092919080519060200190929190505050909192939495969798509091929394959697509091929394959650909192939495509091929394509091929350909192509091509050809150506108ec83826040518060400160405280600581526020017f6b69747479000000000000000000000000000000000000000000000000000000815250611265565b505050565b600481815481106108fe57fe5b9060005260206000209060030201600091509050806000018054600181600116156101000203166002900480601f0160208091040260200160405190810160405280929190818152602001828054600181600116156101000203166002900480156109aa5780601f1061097f576101008083540402835291602001916109aa565b820191906000526020600020905b81548152906001019060200180831161098d57829003601f168201915b5050505050908060010154908060020160009054906101000a900463ffffffff16908060020160049054906101000a900463ffffffff16908060020160089054906101000a900461ffff169080600201600a9054906101000a900461ffff16905086565b610a16610e64565b610a1f57600080fd5b6000610a29610e3b565b90508073ffffffffffffffffffffffffffffffffffffffff166108fc479081150290604051600060405180830381858888f19350505050158015610a71573d6000803e3d6000fd5b5050565b606080600660008473ffffffffffffffffffffffffffffffffffffffff1673ffffffffffffffffffffffffffffffffffffffff16815260200190815260200160002054604051908082528060200260200182016040528015610ae65781602001602082028038833980820191505090505b509050600080905060008090505b600480549050811015610b97578473ffffffffffffffffffffffffffffffffffffffff166005600083815260200190815260200160002060009054906101000a900473ffffffffffffffffffffffffffffffffffffffff1673ffffffffffffffffffffffffffffffffffffffff161415610b8a5780838381518110610b7557fe5b60200260200101818152505081806001019250505b8080600101915050610af4565b508192505050919050565b60056020528060005260406000206000915054906101000a900473ffffffffffffffffffffffffffffffffffffffff1681565b610bdd610e64565b610be657600080fd5b80600760006101000a81548173ffffffffffffffffffffffffffffffffffffffff021916908373ffffffffffffffffffffffffffffffffffffffff16021790555050565b6014828160048281548110610c3b57fe5b906000526020600020906003020160020160009054906101000a900463ffffffff1663ffffffff161015610c6e57600080fd5b836005600082815260200190815260200160002060009054906101000a900473ffffffffffffffffffffffffffffffffffffffff1673ffffffffffffffffffffffffffffffffffffffff163373ffffffffffffffffffffffffffffffffffffffff1614610cda57600080fd5b8360048681548110610ce857fe5b9060005260206000209060030201600101819055505050505050565b610d0c610e64565b610d1557600080fd5b600073ffffffffffffffffffffffffffffffffffffffff166000809054906101000a900473ffffffffffffffffffffffffffffffffffffffff1673ffffffffffffffffffffffffffffffffffffffff167f8be0079c531659141344cd1fd0a4f28419497f9722a3daafe3b4186f6b6457e060405160405180910390a360008060006101000a81548173ffffffffffffffffffffffffffffffffffffffff021916908373ffffffffffffffffffffffffffffffffffffffff160217905550565b6000600660003373ffffffffffffffffffffffffffffffffffffffff1673ffffffffffffffffffffffffffffffffffffffff1681526020019081526020016000205414610e2057600080fd5b6000610e2b82611447565b9050610e3782826114d5565b5050565b60008060009054906101000a900473ffffffffffffffffffffffffffffffffffffffff16905090565b60008060009054906101000a900473ffffffffffffffffffffffffffffffffffffffff1673ffffffffffffffffffffffffffffffffffffffff163373ffffffffffffffffffffffffffffffffffffffff1614905090565b6002838160048281548110610ecc57fe5b906000526020600020906003020160020160009054906101000a900463ffffffff1663ffffffff161015610eff57600080fd5b846005600082815260200190815260200160002060009054906101000a900473ffffffffffffffffffffffffffffffffffffffff1673ffffffffffffffffffffffffffffffffffffffff163373ffffffffffffffffffffffffffffffffffffffff1614610f6b57600080fd5b848460048881548110610f7a57fe5b90600052602060002090600302016000019190610f989291906119f1565b50505050505050565b610fa9610e64565b610fb257600080fd5b8060088190555050565b816005600082815260200190815260200160002060009054906101000a900473ffffffffffffffffffffffffffffffffffffffff1673ffffffffffffffffffffffffffffffffffffffff163373ffffffffffffffffffffffffffffffffffffffff161461102857600080fd5b60006004848154811061103757fe5b9060005260206000209060030201905060006004848154811061105657fe5b90600052602060002090600302019050600061107260646117a7565b9050600a5481116111a6576110a760018460020160089054906101000a900461ffff1661ffff1661184090919063ffffffff16565b8360020160086101000a81548161ffff021916908361ffff1602179055506110f360018460020160009054906101000a900463ffffffff1663ffffffff1661186490919063ffffffff16565b8360020160006101000a81548163ffffffff021916908363ffffffff16021790555061113f600183600201600a9054906101000a900461ffff1661ffff1661184090919063ffffffff16565b82600201600a6101000a81548161ffff021916908361ffff1602179055506111a18683600101546040518060400160405280600681526020017f7a6f6d6269650000000000000000000000000000000000000000000000000000815250611265565b611240565b6111d0600184600201600a9054906101000a900461ffff1661ffff1661184090919063ffffffff16565b83600201600a6101000a81548161ffff021916908361ffff16021790555061121860018360020160089054906101000a900461ffff1661ffff1661184090919063ffffffff16565b8260020160086101000a81548161ffff021916908361ffff16021790555061123f8361188c565b5b505050505050565b611250610e64565b61125957600080fd5b611262816118b6565b50565b826005600082815260200190815260200160002060009054906101000a900473ffffffffffffffffffffffffffffffffffffffff1673ffffffffffffffffffffffffffffffffffffffff163373ffffffffffffffffffffffffffffffffffffffff16146112d157600080fd5b6000600485815481106112e057fe5b906000526020600020906003020190506112f9816119ae565b61130257600080fd5b600254848161130d57fe5b06935060006002858360010154018161132257fe5b04905060405160200180807f6b69747479000000000000000000000000000000000000000000000000000000815250600501905060405160208183030381529060405280519060200120846040516020018082805190602001908083835b602083106113a35780518252602082019150602081019050602083039250611380565b6001836020036101000a0380198251168184511680821785525050505050509050019150506040516020818303038152906040528051906020012014156113f7576063606482816113f057fe5b0682030190505b6114366040518060400160405280600681526020017f4e6f4e616d650000000000000000000000000000000000000000000000000000815250826114d5565b61143f8261188c565b505050505050565b600080826040516020018082805190602001908083835b60208310611481578051825260208201915060208101905060208303925061145e565b6001836020036101000a0380198251168184511680821785525050505050509050019150506040516020818303038152906040528051906020012060001c905060025481816114cc57fe5b06915050919050565b6000600160046040518060c00160405280868152602001858152602001600163ffffffff168152602001600354420163ffffffff168152602001600061ffff168152602001600061ffff1681525090806001815401808255809150509060018203906000526020600020906003020160009091929091909150600082015181600001908051906020019061156a929190611a71565b506020820151816001015560408201518160020160006101000a81548163ffffffff021916908363ffffffff16021790555060608201518160020160046101000a81548163ffffffff021916908363ffffffff16021790555060808201518160020160086101000a81548161ffff021916908361ffff16021790555060a082015181600201600a6101000a81548161ffff021916908361ffff1602179055505050039050336005600083815260200190815260200160002060006101000a81548173ffffffffffffffffffffffffffffffffffffffff021916908373ffffffffffffffffffffffffffffffffffffffff1602179055506116b36001600660003373ffffffffffffffffffffffffffffffffffffffff1673ffffffffffffffffffffffffffffffffffffffff168152602001908152602001600020546119d590919063ffffffff16565b600660003373ffffffffffffffffffffffffffffffffffffffff1673ffffffffffffffffffffffffffffffffffffffff168152602001908152602001600020819055507f88f026aacbbecc90c18411df4b1185fd8d9be2470f1962f192bf84a27d0704b78184846040518084815260200180602001838152602001828103825284818151815260200191508051906020019080838360005b8381101561176657808201518184015260208101905061174b565b50505050905090810190601f1680156117935780820380516001836020036101000a031916815260200191505b5094505050505060405180910390a1505050565b60006117bf60016009546119d590919063ffffffff16565b600981905550814233600954604051602001808481526020018373ffffffffffffffffffffffffffffffffffffffff1673ffffffffffffffffffffffffffffffffffffffff1660601b815260140182815260200193505050506040516020818303038152906040528051906020012060001c8161183857fe5b069050919050565b60008082840190508361ffff168161ffff16101561185a57fe5b8091505092915050565b60008082840190508363ffffffff168163ffffffff16101561188257fe5b8091505092915050565b60035442018160020160046101000a81548163ffffffff021916908363ffffffff16021790555050565b600073ffffffffffffffffffffffffffffffffffffffff168173ffffffffffffffffffffffffffffffffffffffff1614156118f057600080fd5b8073ffffffffffffffffffffffffffffffffffffffff166000809054906101000a900473ffffffffffffffffffffffffffffffffffffffff1673ffffffffffffffffffffffffffffffffffffffff167f8be0079c531659141344cd1fd0a4f28419497f9722a3daafe3b4186f6b6457e060405160405180910390a3806000806101000a81548173ffffffffffffffffffffffffffffffffffffffff021916908373ffffffffffffffffffffffffffffffffffffffff16021790555050565b6000428260020160049054906101000a900463ffffffff1663ffffffff1611159050919050565b6000808284019050838110156119e757fe5b8091505092915050565b828054600181600116156101000203166002900490600052602060002090601f016020900481019282601f10611a3257803560ff1916838001178555611a60565b82800160010185558215611a60579182015b82811115611a5f578235825591602001919060010190611a44565b5b509050611a6d9190611af1565b5090565b828054600181600116156101000203166002900490600052602060002090601f016020900481019282601f10611ab257805160ff1916838001178555611ae0565b82800160010185558215611ae0579182015b82811115611adf578251825591602001919060010190611ac4565b5b509050611aed9190611af1565b5090565b611b1391905b80821115611b0f576000816000905550600101611af7565b5090565b9056fea265627a7a7231582082d0bad5baa0ab9559b0564a9b12f86c09def319273c7f8058f7042128454a3e64736f6c63430005100032",
  "source": "pragma solidity >=0.5.0 <0.6.0;\r\n\r\nimport \"./ZombieHelper.sol\";\r\n\r\ncontract ZombieAttack is ZombieHelper {\r\n  uint randNonce = 0;\r\n  uint attackVictoryProbability = 70;\r\n\r\n  function randMod(uint _modulus) internal returns(uint) {\r\n    randNonce = randNonce.add(1);\r\n    return uint(keccak256(abi.encodePacked(now, msg.sender, randNonce))) % _modulus;\r\n  }\r\n\r\n  function attack(uint _zombieId, uint _targetId) external onlyOwnerOf(_zombieId) {\r\n      Zombie storage myZombie = zombies[_zombieId];\r\n      Zombie storage enemyZombie = zombies[_targetId];\r\n      uint rand = randMod(100);\r\n\r\n      if (rand <= attackVictoryProbability) {\r\n      myZombie.winCount = myZombie.winCount.add(1);\r\n      myZombie.level = myZombie.level.add(1);\r\n      enemyZombie.lossCount = enemyZombie.lossCount.add(1);\r\n      feedAndMultiply(_zombieId, enemyZombie.dna, \"zombie\");\r\n    } else {\r\n      myZombie.lossCount = myZombie.lossCount.add(1);\r\n      enemyZombie.winCount = enemyZombie.winCount.add(1);\r\n      _triggerCooldown(myZombie);  \r\n    }\r\n    \r\n  }\r\n}\r\n",
  "sourcePath": "c:\\_solida\\solidazombies\\src\\contracts\\ZombieAttack.sol",
  "compiler": {
    "name": "solc",
    "version": "0.5.16+commit.9c3226ce.Emscripten.clang"
  },
  "schemaVersion": "3.2.3",
  "updatedAt": "2021-03-25T01:41:11.103Z",
  "devdoc": {
    "methods": {
      "isOwner()": {
        "return": "true if `msg.sender` is the owner of the contract."
      },
      "owner()": {
        "return": "the address of the owner."
      },
      "renounceOwnership()": {
        "details": "Allows the current owner to relinquish control of the contract."
      },
      "transferOwnership(address)": {
        "details": "Allows the current owner to transfer control of the contract to a newOwner.",
        "params": {
          "newOwner": "The address to transfer ownership to."
        }
      }
    }
  },
  "userdoc": {
    "methods": {
      "renounceOwnership()": {
        "notice": "Renouncing to ownership will leave the contract without an owner. It will not be possible to call the functions with the `onlyOwner` modifier anymore."
      }
    }
  }
}